:020000040000FA
:0600000098EF01F0120070
:020006000000F8
:08000800D9CFE6FFE1CFD9FFDB
:10001000020EE126946A956AE66E36D8E5520F0E16
:10002000E66E32D8E552280EE66E2ED8E552010E65
:10003000E66E2AD8E552800EE66E26D8E552060E08
:10004000E66E22D8E5524C0EE66E030EE66EEFD851
:10005000E552E552180EE66E17D8E552070EE66E29
:1000600013D8E5524C0EE66E030EE66EE0D8E5526C
:10007000E552E9D7020EE15C02E2E16AE552E16E87
:10008000E552E7CFD9FF1200D9CFE6FFE1CFD9FF84
:10009000020EE126FE0EDB50F00BDE6EDD6ADF5055
:1000A000836E82908284640EE66EE66A73D8E552AF
:1000B000E5528294FE0EDB500F0B006E016A00BE0B
:1000C000016800C0DEFF01C0DDFFDECF00F0DDCF44
:1000D00001F0040ED89000360136E804FBE100C0C0
:1000E000DEFF01C0DDFFDF50836E8284640EE66EAA
:1000F000E66A50D8E552E5528294020EE15C02E2D3
:10010000E16AE552E16EE552E7CFD9FF1200D9CF9F
:10011000E6FFE1CFD9FF020EE126FE0EDB50F00B29
:10012000DE6EDD6ADF50836E82808284640EE66E4E
:10013000E66A30D8E552E5528294FE0EDB500F0B92
:10014000006E016A00BE016800C0DEFF01C0DDFF75
:10015000DECF00F0DDCF01F0040ED890003601367E
:10016000E804FBE100C0DEFF01C0DDFFDF50836E6D
:100170008284640EE66EE66A0DD8E552E5528294FA
:10018000020EE15C02E2E16AE552E16EE552E7CF80
:10019000D9FF1200D9CFE6FFE1CFD9FF040EE12647
:1001A000DE6ADD6ADECF00F0DDCF01F0FD0EDBCFD1
:1001B00002F0FE0EDBCF03F001500318E8AE02D0D0
:1001C000033404D00250005C0350015826E2020EB2
:1001D000DB6A030EDB6A020EDBCF00F0030EDBCF1F
:1001E00001F0FD0EDBCF02F0FE0EDBCF03F001507D
:1001F0000318E8AE02D0033404D00250005C035070
:10020000015806E2020EDB2A030E01E3DB2AE3D7E4
:10021000DF2A010E01E3DB2AC5D7040EE15C02E20E
:10022000E16AE552E16EE552E7CFD9FF1200D9CF7E
:10023000E6FFE1CFD9FFFD0EDBCFF6FFFE0EDBCFF1
:10024000F7FF0800F55011E0FD0EDBCFF6FFFE0EC4
:10025000DBCFF7FF0800F550E66E59DFE552FD0EE3
:10026000DB2AFE0E01E3DB2AE6D7E552E7CFD9FF12
:0202700012007A
:0E027200060EF66E000EF76E000EF86E00011E
:100280000900F550656F0900F550666F03E1656779
:1002900001D03DD00900F550606F0900F550616F45
:1002A0000900F550626F09000900F550E96E090078
:1002B000F550EA6E090009000900F550636F090066
:1002C000F550646F09000900F6CF67F0F7CF68F0CA
:1002D000F8CF69F060C0F6FF61C0F7FF62C0F8FFB9
:1002E0000001635302E1645307E00900F550EE6E2C
:1002F0006307F8E26407F9D767C0F6FF68C0F7FF45
:1003000069C0F8FF00016507000E665BBFD71200E9
:10031000000EF36E00EE00F0060E01D81200EA6047
:1003200002D0EE6AFCD7F350E9601200EE6AFCD707
:1003300015EE00F025EE00F0F86A059C39EC01F0AE
:0C034000AEEC01F004EC00F0FBD7120062
:04034C00414449548B
:0C03500059415F57414C5A414445200080
:02035C0012008D
:00000001FF
