:020000040000FA
:06000000EDEF01F012001B
:020006000000F8
:08000800D9CFE6FFE1CFD9FFDB
:10001000180EE126C00EF36E040EF3CFDBFF050EC3
:10002000DB6AF90EF36E060EF3CFDBFF070EDB6A19
:10003000A40EF36E080EF3CFDBFF090EDB6AB00EE1
:10004000F36E0A0EF3CFDBFF0B0EDB6A990EF36E35
:100050000C0EF3CFDBFF0D0EDB6A920EF36E0E0E6D
:10006000F3CFDBFF0F0EDB6A820EF36E100EF3CFC1
:10007000DBFF110EDB6AF80EF36E120EF3CFDBFF1F
:10008000130EDB6A800EF36E140EF3CFDBFF150E3A
:10009000DB6A900EF36E160EF3CFDBFF170EDB6AF2
:1000A000946A956ADE6ADD6ADECF14F0DDCF15F062
:1000B000D890155004E6640E145C000E15586DE2DD
:1000C000838083920A0E146E156A14C00DF015C059
:1000D0000EF0DECF08F0DDCF09F025EC01F0020EC6
:1000E00008C0DBFF030E09C0DBFFD950040F146EFC
:1000F000DACF15F0020E086E096ADBCF0DF0030EA1
:10010000DBCF0EF04BEC01F014500624E96E1550D5
:100110000720EA6EEF50826E320EE66EE66A48D82D
:10012000E552E55283908382DECF14F0DDCF15F0E7
:100130000A0E0D6E0E6A14C008F015C009F025EC09
:1001400001F004C014F005C015F0020E14C0DBFF6E
:10015000030E15C0DBFFD950040F146EDACF15F073
:10016000020E086E096ADBCF0DF0030EDBCF0EF036
:100170004BEC01F014500624E96E15500720EA6E8E
:10018000EF50826E320EE66EE66A12D8E552E55204
:10019000DF2A010E01E3DB2A87D784D7180EE15C42
:1001A00002E2E16AE552E16EE552E7CFD9FF1200C3
:1001B000D9CFE6FFE1CFD9FF040EE126DE6ADD6A82
:1001C000DECF14F0DDCF15F0FD0EDBCF16F0FE0E06
:1001D000DBCF17F015501718E8AE02D0173404D053
:1001E0001650145C1750155826E2020EDB6A030EF7
:1001F000DB6A020EDBCF14F0030EDBCF15F0FD0E31
:10020000DBCF16F0FE0EDBCF17F015501718E8AE57
:1002100002D0173404D01650145C1750155806E25B
:10022000020EDB2A030E01E3DB2AE3D7DF2A010EED
:1002300001E3DB2AC5D7040EE15C02E2E16AE55284
:0A024000E16EE552E7CFD9FF12008E
:06024A00006A0EAE2EEF6B
:1002500001F00D6C0E1EE86A0E22001E09AE36EF8C
:1002600001F0086C091EE86A0922001EC7EC01F0C3
:1002700009BE46EF01F000AE000C086C091EE86AEA
:100280000922046C051EE86A0522000C00BE3DEF41
:1002900001F00188FF0C09C013F008C012F00850EB
:1002A0000D02F4CF07F0F3CF06F009500E02F4CFA1
:1002B00009F0F3CF08F00D02F3500726F45008229E
:1002C000E86A092212500E02F3500726F450082261
:1002D000E86A09220EAE71EF01F01250085E135069
:1002E000095A13AE000C0D50085E0E50095A000C4E
:1002F000060EF66E000EF76E000EF86E0001090095
:10030000F550656F0900F550666F03E1656701D030
:100310003DD00900F550606F0900F550616F09008C
:10032000F550626F09000900F550E96E0900F550BB
:10033000EA6E090009000900F550636F0900F550E5
:10034000646F09000900F6CF67F0F7CF68F0F8CFC7
:1003500069F060C0F6FF61C0F7FF62C0F8FF0001FE
:10036000635302E1645307E00900F550EE6E630742
:10037000F8E26407F9D767C0F6FF68C0F7FF69C005
:0E038000F8FF00016507000E665BBFD7120094
:02038E00056AFE
:10039000046A100EE76ED890083609360436053622
:1003A0000D50045C0E50055805E30D50045E0E50D0
:0A03B000055A082AE72EF0D71200C4
:0603BA00000EF36E00EEE0
:1003C00000F0060E01D81200EA6002D0EE6AFCD7F7
:0A03D000F350E9601200EE6AFCD75A
:0603DA0015EE00F025EE17
:1003E00000F0F86A019C78EC01F0FBEC01F004EC01
:0603F00000F0FBD7120033
:0203F6001200F3
:00000001FF
