:020000040000FA
:0600000049EF02F01200BE
:020006000000F8
:08000800D9CFE6FFE1CFD9FFDB
:100010000C0EE1269280946A956A030EC26E0E0E53
:10002000C16E880EC06E0F0EE66ED2D8E552380E45
:10003000E66ECED8E552010EE66ECAD8E552800EC5
:10004000E66EC6D8E552060EE66EC2D8E552AE0E92
:10005000E66E040EE66E33D9E552E552C282C2A2C4
:100060002DD0C450E66ED950020FE96EDACFEAFF08
:10007000E552E750EE6EED6A020EDBCF14F0030E90
:10008000DBCF15F014C015F0146A020E14C0DBFFAC
:10009000030E15C0DBFFC350E76E020EDBCF14F07A
:1000A000030EDBCF15F0E7501426000E1522020ECA
:1000B00014C0DBFF030E15C0DBFFD1D7DE6ADD6A9B
:1000C000DECF14F0DDCF15F0D890155004E6040E05
:1000D000145C000E155849E2020EDBCF16F0030E39
:1000E000DBCF17F00A0E0D6E0E6A16C008F017C0AF
:1000F00009F081EC01F004C016F005C017F0300ED5
:100100001626000E1722D950040F146EDACF15F000
:10011000020E086E096ADECF0DF0DDCF0EF0A7ECFF
:1001200001F014500624E96E15500720EA6E16C03F
:10013000EEFF17C0EDFF0A0E146E156A020EDBCF3C
:1001400008F0030EDBCF09F014C00DF015C00EF05F
:1001500081EC01F0020E08C0DBFF030E09C0DBFFDB
:10016000DF2A010E01E3DB2AABD7030EDE6EDD6A68
:10017000DECF14F0DDCF15F00001800E15141DE167
:10018000D950040F146EDACF15F0020E086E096A0A
:10019000DECF0DF0DDCF0EF0A7EC01F014500624F9
:1001A000E96E15500720EA6EEF50E66E26D8E5524C
:1001B000DF06010E01E2DB06DBD749D70C0EE15C5E
:1001C00002E2E16AE552E16EE552E7CFD9FF1200A3
:1001D000D9CFE6FFE1CFD9FFFE0EDB50836E8290D0
:1001E00082928284640EE66EE66A1CD8E552E5527D
:1001F0008294E552E7CFD9FF1200D9CFE6FFE1CFD5
:10020000D9FFFE0EDB50836E828082928284640E60
:10021000E66EE66A07D8E552E5528294E552E7CFEA
:10022000D9FF1200D9CFE6FFE1CFD9FF040EE126B6
:10023000DE6ADD6ADECF14F0DDCF15F0FD0EDBCF18
:1002400016F0FE0EDBCF17F015501718E8AE02D0EF
:10025000173404D01650145C1750155826E2020EBD
:10026000DB6A030EDB6A020EDBCF14F0030EDBCF7A
:1002700015F0FD0EDBCF16F0FE0EDBCF17F015509C
:100280001718E8AE02D0173404D01650145C17507B
:10029000155806E2020EDB2A030E01E3DB2AE3D740
:1002A000DF2A010E01E3DB2AC5D7040EE15C02E27E
:1002B000E16AE552E16EE552E7CFD9FF1200D9CFEE
:1002C000E6FFE1CFD9FFFD0EDBCFF6FFFE0EDBCF61
:1002D000F7FF0800F55011E0FD0EDBCFF6FFFE0E34
:1002E000DBCFF7FF0800F550E66E87DFE552FD0E25
:1002F000DB2AFE0E01E3DB2AE6D7E552E7CFD9FF82
:020300001200E9
:0E030200006A0EAE8AEF01F00D6C0E1EE86A66
:100310000E22001E09AE92EF01F0086C091EE86A79
:100320000922001E23EC02F009BEA2EF01F000AE8C
:10033000000C086C091EE86A0922046C051EE86AB4
:100340000522000C00BE99EF01F00188FF0C09C0E6
:1003500013F008C012F008500D02F4CF07F0F3CFED
:1003600006F009500E02F4CF09F0F3CF08F00D02A9
:10037000F3500726F4500822E86A092212500E02B0
:10038000F3500726F4500822E86A09220EAECDEF9A
:1003900001F01250085E1350095A13AE000C0D50B4
:0803A000085E0E50095A000C22
:0803A800060EF66E000EF76E62
:1003B000000EF86E00010900F550656F0900F55058
:1003C000666F03E1656701D03DD00900F550606FAD
:1003D0000900F550616F0900F550626F09000900CE
:1003E000F550E96E0900F550EA6E090009000900B0
:1003F000F550636F0900F550646F09000900F6CFEE
:1004000067F0F7CF68F0F8CF69F060C0F6FF61C021
:10041000F7FF62C0F8FF0001635302E1645307E095
:100420000900F550EE6E6307F8E26407F9D767C07C
:10043000F6FF68C0F7FF69C0F8FF00016507000E0E
:06044000665BBFD712004D
:0A044600056A046A100EE76ED890F4
:1004500008360936043605360D50045C0E50055832
:1004600005E30D50045E0E50055A082AE72EF0D71A
:02047000120078
:0E047200000EF36E00EE00F0060E01D8120030
:10048000EA6002D0EE6AFCD7F350E9601200EE6A2F
:02049000FCD797
:0E04920015EE00F025EE00F0F86A019CD4ECA7
:0E04A00001F05CEC02F004EC00F0FBD712005F
:0204AE00566195
:0804B0006C75652069733A00C8
:0204B800120030
:00000001FF
