:020000040000FA
:0600000076EF00F0120093
:020006000000F8
:08000800060EF66E000EF76E05
:10001000000EF86E00010900F550656F0900F550FB
:10002000666F03E1656701D03DD00900F550606F50
:100030000900F550616F0900F550626F0900090071
:10004000F550E96E0900F550EA6E09000900090053
:10005000F550636F0900F550646F09000900F6CF91
:1000600067F0F7CF68F0F8CF69F060C0F6FF61C0C5
:10007000F7FF62C0F8FF0001635302E1645307E039
:100080000900F550EE6E6307F8E26407F9D767C020
:10009000F6FF68C0F7FF69C0F8FF00016507000EB2
:0600A000665BBFD71200F1
:0A00A600946A9580958283A004D02F
:1000B00082848280829201D0829483A204D082863C
:0C00C0008288829A01D08296F1D712004B
:0400CC00000EF36EC1
:1000D00000EE00F0060E01D81200EA6002D0EE6ACF
:0C00E000FCD7F350E9601200EE6AFCD778
:0400EC0015EE00F01D
:1000F00025EE00F0F86A019C04EC00F084EC00F0BE
:0801000053EC00F0FBD71200E4
:020108001200E3
:00000001FF
