:020000040000FA
:0600000003EF02F0120004
:020006000000F8
:080008000F0EC16E949094925A
:10001000936A956AE7D8220EE66E040EE66E74D9EE
:10002000E552E552C00EE66EE66AFBD8E552E552AF
:10003000FE0E816EEE0E815C08E1EE0E815C01E148
:10004000FCD7370EE66E01D9E552DE0E815C08E181
:10005000DE0E815C01E1FCD7380EE66EF6D8E55283
:10006000BE0E815C08E1BE0E815C01E1FCD7390E59
:10007000E66EEBD8E5527E0E815C08E17E0E815C77
:1000800001E1FCD72F0EE66EE0D8E552FD0E816E41
:10009000ED0E815C08E1ED0E815C01E1FCD7340ED0
:1000A000E66ED3D8E552DD0E815C08E1DD0E815CA1
:1000B00001E1FCD7350EE66EC8D8E552BD0E815C75
:1000C00008E1BD0E815C01E1FCD7360EE66EBDD8BD
:1000D000E5527D0E815C08E17D0E815C01E1FCD77B
:1000E0002A0EE66EB2D8E552FB0E816EEB0E815CF5
:1000F00008E1EB0E815C01E1FCD7310EE66EA5D87C
:10010000E552DB0E815C08E1DB0E815C01E1FCD78E
:10011000320EE66E9AD8E552BB0E815C08E1BB0E4A
:10012000815C01E1FCD7330EE66E8FD8E5527B0E81
:10013000815C08E17B0E815C01E1FCD72D0EE66E4F
:1001400084D8E552F70E816EE70E815C28E1E70E58
:10015000815C01E1FCD7430EE66E77D8E5522C0EA8
:10016000E66E010EE66E85D8E552E552010EE66EAA
:10017000E66A57D8E552E552800EE66EE66A51D837
:10018000E552E552220EE66E040EE66EBDD8E5524B
:10019000E552C00EE66EE66A44D8E552E552D70E47
:1001A000815C08E1D70E815C01E1FCD7300EE66E80
:1001B0004CD8E552B70E815C08E1B70E815C01E1D5
:1001C000FCD73D0EE66E41D8E552770E815C08E122
:1001D000770E815C01E1FCD72B0EE66E36D8E55236
:1001E00027D71200010EE66EE66A1BD8E552E552EB
:1001F000380EE66EE66A15D8E552E5520E0EE66E4A
:10020000E66A0FD8E552E552060EE66EE66A09D8B0
:10021000E552E552800EE66EE66A03D8E552E552F5
:100220001200D9CFE6FFE1CFD9FFFD0EDB50836E80
:1002300082908282640EE66EE66A1BD8E552E55231
:100240008292E552E7CFD9FF1200D9CFE6FFE1CF86
:10025000D9FFFE0EDB50836E82808282640EE66ED2
:10026000E66A07D8E552E5528292E552E7CFD9FF18
:100270001200D9CFE6FFE1CFD9FF040EE126DE6AF6
:10028000DD6ADECF00F0DDCF01F0FD0EDBCF02F046
:10029000FE0EDBCF03F001500318E8AE02D00334AA
:1002A00004D00250005C0350015824E2020EDB6AC5
:1002B000030EDB6A020EDBCF00F0030EDBCF01F092
:1002C000DECF02F0DDCF03F001500318E8AE02D01C
:1002D000033404D00250005C0350015806E2020EC1
:1002E000DB2A030E01E3DB2AE5D7DF2A010E01E357
:1002F000DB2AC7D7040EE15C02E2E16AE552E16E57
:10030000E552E7CFD9FF1200D9CFE6FFE1CFD9FF01
:10031000FD0EDBCFF6FFFE0EDBCFF7FF0800F5503A
:100320000FE0FD0EDBCFF6FFDB2AFE0EDBCFF7FF83
:1003300001E3DB2A0800F550E66E87DFE552E8D7D7
:08034000E552E7CFD9FF1200DE
:08034800060EF66E000EF76EC2
:10035000000EF86E00010900F550656F0900F550B8
:10036000666F03E1656701D03DD00900F550606F0D
:100370000900F550616F0900F550626F090009002E
:10038000F550E96E0900F550EA6E09000900090010
:10039000F550636F0900F550646F09000900F6CF4E
:1003A00067F0F7CF68F0F8CF69F060C0F6FF61C082
:1003B000F7FF62C0F8FF0001635302E1645307E0F6
:1003C0000900F550EE6E6307F8E26407F9D767C0DD
:1003D000F6FF68C0F7FF69C0F8FF00016507000E6F
:0603E000665BBFD71200AE
:0A03E600000EF36E00EE00F0060EAC
:1003F00001D81200EA6002D0EE6AFCD7F350E9603F
:060400001200EE6AFCD7B9
:0A04060015EE00F025EE00F0F86A94
:10041000059CA4EC01F016EC02F004EC00F0FBD714
:020420001200C8
:0A042200456E746572206E6F2E00A7
:02042C001200BC
:00000001FF
