:020000040000FA
:0600000056EF01F01200B2
:020006000000F8
:08000800D9CFE6FFE1CFD9FFDB
:10001000020EE126946A956A0F0EE66E40D8E5520C
:10002000380EE66E3CD8E552010EE66E38D8E55241
:10003000800EE66E34D8E552060EE66E30D8E552F4
:10004000800EE66E2CD8E552A30EE66E020EE66E2A
:100050009DD8E552E5529B0EE66E020EE66E96D8EE
:10006000E552E552C00EE66E1AD8E552940EE66EE1
:10007000020EE66E8BD8E552E5528E0EE66E020E4B
:10008000E66E84D8E552E552DBD7020EE15C02E26F
:10009000E16AE552E16EE552E7CFD9FF1200D9CF10
:1000A000E6FFE1CFD9FFFE0EDB50836E8290829295
:1000B0008284640EE66EE66A1CD8E552E5528294AC
:1000C000E552E7CFD9FF1200D9CFE6FFE1CFD9FF44
:1000D000FE0EDB50836E828082928284640EE66E16
:1000E000E66A07D8E552E5528294E552E7CFD9FF98
:1000F0001200D9CFE6FFE1CFD9FF040EE126DE6A78
:10010000DD6ADECF00F0DDCF01F0FD0EDBCF02F0C7
:10011000FE0EDBCF03F001500318E8AE02D003342B
:1001200004D00250005C0350015826E2020EDB6A44
:10013000030EDB6A020EDBCF00F0030EDBCF01F013
:10014000FD0EDBCF02F0FE0EDBCF03F001500318F3
:10015000E8AE02D0033404D00250005C03500158D2
:1001600006E2020EDB2A030E01E3DB2AE3D7DF2AD5
:10017000010E01E3DB2AC5D7040EE15C02E2E16A6D
:10018000E552E16EE552E7CFD9FF1200D9CFE6FF85
:10019000E1CFD9FFFD0EDBCFF6FFFE0EDBCFF7FF81
:1001A0000800F55011E0FD0EDBCFF6FFFE0EDBCFB1
:1001B000F7FF0800F550E66E87DFE552FD0EDB2AFB
:1001C000FE0E01E3DB2AE6D7E552E7CFD9FF1200A6
:1001D000060EF66E000EF76E000EF86E00010900B6
:1001E000F550656F0900F550666F03E1656701D052
:1001F0003DD00900F550606F0900F550616F0900AE
:10020000F550626F09000900F550E96E0900F550DC
:10021000EA6E090009000900F550636F0900F55006
:10022000646F09000900F6CF67F0F7CF68F0F8CFE8
:1002300069F060C0F6FF61C0F7FF62C0F8FF00011F
:10024000635302E1645307E00900F550EE6E630763
:10025000F8E26407F9D767C0F6FF68C0F7FF69C026
:0E026000F8FF00016507000E665BBFD71200B5
:02026E00000E80
:10027000F36E00EE00F0060E01D81200EA6002D024
:0E028000EE6AFCD7F350E9601200EE6AFCD77C
:02028E004E45DB
:10029000445245004441545441200057414C5A4176
:0B02A0004445004144495459412000EE
:0402AC0015EE00F05B
:1002B00025EE00F0F86A059CE8EC00F064EC01F033
:0802C00004EC00F0FBD7120072
:0202C800120022
:00000001FF
