:020000040000FA
:0600000086EF00F0120083
:020006000000F8
:08000800060EF66E000EF76E05
:10001000000EF86E00010900F550656F0900F550FB
:10002000666F03E1656701D03DD00900F550606F50
:100030000900F550616F0900F550626F0900090071
:10004000F550E96E0900F550EA6E09000900090053
:10005000F550636F0900F550646F09000900F6CF91
:1000600067F0F7CF68F0F8CF69F060C0F6FF61C0C5
:10007000F7FF62C0F8FF0001635302E1645307E039
:100080000900F550EE6E6307F8E26407F9D767C020
:10009000F6FF68C0F7FF69C0F8FF00016507000EB2
:0600A000665BBFD71200F1
:0A00A600949094929494070ED56E86
:1000B000828011D810D882820ED80DD882840BD8B5
:1000C0000AD8829008D807D8829205D804D882949A
:1000D00002D8EED71200FE0ED76E790ED66EF294CD
:0C00E000D58EF2A4FED7D59EF29412003B
:0400EC00000EF36EA1
:1000F00000EE00F0060E01D81200EA6002D0EE6AAF
:0C010000FCD7F350E9601200EE6AFCD757
:04010C0015EE00F0FC
:1001100025EE00F0F86A019C04EC00F094EC00F08D
:0801200053EC00F0FBD71200C4
:020128001200C3
:00000001FF
